S01800006275696C642F6D6963617A2F6D61696E2E73726563E5
S11300000C9463000C942B060C9435060C943F0658
S11300100C9449060C9453060C945D060C94E30965
S11300200C9467060C9482000C9482000C942B0DA3
S11300300C944E0F0C94F5050C940B060C94E306EB
S11300400C94E4050C9482110C9482000C948200AC
S11300500C9482000C9471060C9482000C9482001F
S11300600C9400060C9482000C9482000C94820080
S11300700C9482000C9482000C9482000C948200F4
S11300800C9482000C9482000C94820011125C1275
S11300906312B412CF12D5120E13C913EC13001449
S11300A08215B5150D160912581666168C16DB1630
S11300B0E616E816EC16F016F61608171917311797
S11300C000081C18141011241FBECFEFD0E1DEBFAE
S11300D0CDBF11E0A0E0B1E0EEE1F9E300E00BBF39
S11300E002C007900D92A031B107D9F712E0A0E148
S11300F0B1E001C01D92A937B107E1F70E947B1856
S11301000C948E1C0C9400008FB7F89499270895D2
S11301108FBF0895982F969596959695E8E9F1E006
S1130120E90FF11D877021E030E002C0220F331F78
S11301308A95E2F78081822399270895282F9FB713
S1130140F894E82FFF27E95BFE4F80818F3F81F40D
S1130150E0917702E21771F40BC02093680204C0A7
S1130160FF27E95BFE4F20832093770220E007C03E
S113017025E005C0809168028F3F91F7EECF892F6B
S113018099278FBF822F992708959FB7F894292F15
S11301903327422F90910D01981741F480911E014D
S11301A0833021F42FBF81E090E008954FBF80E0B9
S11301B090E00895982F969596959695E5E4F1E04C
S11301C0E90FF11D877021E030E002C0220F331FD8
S11301D08A95E2F78081822399270895FC01828120
S11301E09927582F442781819927482B592BCA01D5
S11301F0892F992786958695837090708230910512
S113020059F08330910559F0892B19F420E030E03E
S113021008C02CE93FEF05C022E030E002C028E02E
S113022030E0CA0184E0989F812D992711248230FF
S1130230910559F08330910559F0892B19F480E028
S113024090E008C08CE99FEF05C082E090E002C016
S113025088E090E0280F391F2A5F3F4FCF01820FBB
S1130260931F0895282F9FB7F894662349F0E82F29
S1130270FF27E450FE4F8081882311F021E006C05F
S1130280E22FFF27E450FE4F608320E0892F992757
S11302908FBF822F99270895E82F8FB7F894282FBE
S11302A0332790E0FF27E450FE4F8081861709F43E
S11302B091E02FBF892F99270895882311F06E9A12
S11302C008956E980895882311F06F9A08956F9891
S11302D0089580E00E945D01BA9ABB98B99AB89AD1
S11302E06C9A80E00E9463016B986A9881E00E9496
S11302F05D01709A8DB18C7F8DB908950F931F9312
S1130300CF93DF93182F8FB7F894C82FDD270C2FC6
S113031061E080E00E943201882321F0CFBF85E0B4
S113032090E024C0809105018823A1F480911501F7
S1130330823081F409C082E0809315011092050196
S11303400E946901B89AC0981093020180E00FBF1F
S113035099270CC080911501882369F38FB7F8940D
S113036099271092FC018FBF81E0F1CFDF91CF91EB
S11303701F910F9108951F93182F81E00E945D0132
S11303801FB9779BFECF8FB199271F9108958F9244
S11303909F92AF92BF92CF92DF92EF92FF920F9310
S11303A01F93CF93DF938FB7F8949927C09072026D
S11303B0D09073028090BF019090C001C0919201CF
S11303C0D091930120912B0130912C01EAE0AE2EC3
S11303D0B12CAC0EBD1E2A153B0508F459018FBF84
S11303E07401EC0EFD1E86010C0F1D1F14C0C114F8
S11303F0D10419F0F801808101C080E00E94BB01A2
S11304008114910411F0F701808321960894E11C72
S1130410F11C0F5F1F4FC5010197C817D90738F3A7
S113042081E00E9463019FB7F894C114D10431F0B4
S1130430CC0EDD1EF60180818FB901C01FB8D093A8
S11304409301C0939201892F99278FBF80E090E098
S1130450DF91CF911F910F91FF90EF90DF90CF909C
S1130460BF90AF909F908F9008952FB7F894332743
S113047050932C0140932B0190937302809372024A
S11304807093C0016093BF01109293011092920186
S11304902FBF452B29F08FB10E94C70199270895DA
S11304A087E00E949E0080E090E008958FB7F89462
S11304B099271092FE018FBF089580916B028823C3
S11304C019F02FE170E002C078E021E0622FEFB76D
S11304D0F894809167018E7F8093670187B1982F8C
S11304E09F71829586958695837019F080E090E0DF
S11304F012C0822F8850863118F081E090E00BC042
S113050040E050E03327892F99272817390711F441
S113051041E050E0CA01982F9170990F80916701D2
S11305208178262F2F71422F440F440F892B842B5F
S113053080936701332727B9783059F58091690290
S113054090916A0221E08638920718F087E090E0E3
S11305501FC0833C910518F086E090E019C08136F5
S1130560910518F085E090E013C08033910518F0F0
S113057084E090E00DC08831910518F083E090E0AC
S113058007C00C9718F082E090E002C080E090E091
S1130590782F7770887D872B886D992786B98E2F61
S11305A099278FBF0895982F969596959695EAE981
S11305B0F1E0E90FF11D877021E030E002C0220F65
S11305C0331F8A95E2F780818223992708950F9338
S11305D01F93CF93DF93182F8FB7F894282F3327C7
S11305E0022F80911E01882331F581E080931E0142
S11305F010930A022FBF8FB7F894C82FDD279C2FC2
S113060080910D018230A9F480911E01813021F482
S11306108FE00E949E0009C0823059F480910A0242
S113062080930D0183E080931E01CFBF80E090E0B2
S113063025C09FBFFBCF80910A02811711F42FBF01
S1130640F5CF812F0E94D302882319F085E090E032
S113065014C0E12FE695E695E695FF27E656FE4F92
S1130660177081E090E002C0880F991F1A95E2F795
S11306702081282B208380E090E00FBFDF91CF9171
S11306801F910F910895EF920F931F93AE2D99E050
S1130690899FF0011124E556FE4F40835183628304
S11306A073830483158326833783A17080858E7FAB
S11306B08A2B826080878BE00E949E001F910F919D
S11306C0EF9008957FB7F89462B720912E0130918E
S11306D02F01409130015091310106B601FE0FC047
S11306E081B792B7280F311D411D511D2F5F3F4F18
S11306F04F4F5F4F290F311D411D511D04C0260F5F
S1130700311D411D511D872F99278FBFCA01B90182
S11307100895D89AD99A815C914011F410921C01E1
S11307200895DF92EF92FF920F931F938FB7F8947F
S1130730282F3327D22E91B782B746B7981711F0D6
S113074041FF02C02FBF6AC0809191018823E1F16B
S11307500E946203E090F801F090F9010091FA011F
S11307601091FB01209140013091410140914201DF
S1130770509143016E197F09800B910B6217730727
S11307808407950720F01092910171E01EC02E0D90
S11307903F1D401F511F80912E0190912F01A09168
S11307A03001B0913101281B390B4A0B5B0B273EFA
S11307B031054105510540F4822F223010F070E0DC
S11307C005C070E082E002C070E086EE682F6150E0
S11307D000B601FCFDCF82B7681709F46F5F209162
S11307E02E0130912F014091300150913101DA01F5
S11307F0C9010196A11DB11D860F911DA11DB11D39
S113080082179307A407B50710F4622F609561BFA0
S1130810DFBE772319F08AE00E949E001F910F919A
S1130820FF90EF90DF900895AFB7F894BB27E1E015
S1130830E09391016093F8017093F9018093FA01B8
S11308409093FB0120934001309341014093420176
S113085050934301AFBF0E949103089580E88093B1
S1130860440110926E0110926C0210926702109271
S113087069010895CF93DF93FC0115A6DC019E96D0
S1130880ED011B821A82198280E886A7DF91CF913D
S113089008952F923F924F925F926F927F928F9220
S11308A09F92AF92BF92CF92DF92EF92FF920F93FB
S11308B01F93CF93DF93CDB7DEB728970FB6F89485
S11308C0DEBF0FBECDBF2090750130907601409001
S11308D0770150907801662477248824BEE4AB2EF7
S11308E0A3E8BA2ECC24DD24EE24FF2400E010E09B
S11308F0222D332D442D552D662D772D882D90E0F6
S11309000E94701A29833A834B835C836D837E83B0
S11309108F839887822E932EA42EB52E2401350121
S113092000E20E946E1BA22EB32EC42ED52EC3014C
S1130930B20196958795779567956A0D7B1D8C1DF9
S11309409D1D97FF05C09F776F5F7F4F8F4F9F4F10
S11309506093750170937601809377019093780189
S113096028960FB6F894DEBF0FBECDBFDF91CF91AE
S11309701F910F91FF90EF90DF90CF90BF90AF90B9
S11309809F908F907F906F905F904F903F902F90AB
S113099008958FB7F89460919601709197012CB5E2
S11309A03DB506B602FE04C06F5F7F4F2CB53DB562
S11309B099278FBF88279927CB0177276627442754
S11309C05527622B732B842B952B0895EF92FF925E
S11309D00F931F930E94C9047B018C0120917F0116
S11309E030918001409181015091820180917A017E
S11309F090917B01A0917C01B0917D01820F931FA6
S1130A00A41FB51FE216F3060407150730F082177A
S1130A109307A407B50758F005C082179307A407E6
S1130A20B507E0F5E816F9060A071B07B8F59C01B7
S1130A30AD012E193F09400B510B213060E83607F8
S1130A4060E0460760E0560768F180E090E8A0E0C7
S1130A50B0E0E80EF91E0A1F1B1FE0927F01F0921E
S1130A608001009381011093820180E090E8AFEF50
S1130A70BFEFE80EF91E0A1F1B1F205030484040EC
S1130A80504020937A0130937B0140937C01509332
S1130A907D0120E030E840E050E014C020E030E088
S1130AA040E050E080937F0190938001A093810106
S1130AB0B093820110927A0110927B0110927C0112
S1130AC010927D01A901B7012CB53DB5C9018E195C
S1130AD09F0903968417950720F0B9016D5F7F4F36
S1130AE002C0640F751F6115710511F461E070E0B7
S1130AF0615070407BBD6ABD80E186BF87B780616D
S1130B0087BF1F910F91FF90EF9008950F931F934C
S1130B100FB7F894112760937F017093800180933D
S1130B2081019093820120937A0130937B01409359
S1130B307C0150937D010E94E6040FBF1F910F9129
S1130B40089597B79F7D97BF90E296BF882319F0C9
S1130B508EB5806402C08EB58F7B8EBD87B78062F0
S1130B6087BF80E090E00895AF92BF92CF92DF926A
S1130B70EF92FF920F931F93CF93DF93CDB7DEB71E
S1130B8028970FB6F894DEBF0FBECDBF20E070E00B
S1130B90E0910001F091010132E14DE65CE46FE483
S1130BA0809101019E2F28960FB6F894DEBF0FBEE8
S1130BB0CDBFDF91CF911F910F91FF90EF90DF9008
S1130BC0CF90BF90AF9008951F920F920FB60F92DF
S1130BD011248F9383B783BF00B600FCFDCF8F91A0
S1130BE00F900FBE0F901F90189578941F920F923C
S1130BF00FB60F9211240F900FBE0F901F901895EF
S1130C0078941F920F920FB60F9211240F900FBE7B
S1130C100F901F90189578941F920F920FB60F9211
S1130C2011242F933F938F939F932FB7F8943327D7
S1130C3080919601909197010196909397018093EA
S1130C4096012FBF9F918F913F912F910F900FBECF
S1130C500F901F9018951F920F920FB60F921124A8
S1130C600F900FBE0F901F9018951F920F920FB602
S1130C700F9211240F900FBE0F901F9018951F9282
S1130C800F920FB60F9211240F900FBE0F901F906A
S1130C9018951F920F920FB60F9211240F900FBE4A
S1130CA00F901F9018951F920F920FB60F92112458
S1130CB00F900FBE0F901F9018951F920F920FB6B2
S1130CC00F9211240F900FBE0F901F9018951F9232
S1130CD00F920FB60F9211240F900FBE0F901F901A
S1130CE018951F920F920FB60F9211242F933F93D2
S1130CF04F935F936F937F938F939F93AF93BF9320
S1130D00EF93FF9344B155B178948FB7F894992732
S1130D1020916701322F3695317021708FBF2223C5
S1130D20D9F4339880918C01813021F0823009F01C
S1130D3039C00AC0332351F05093F6014093F501B2
S1130D4089E10E949E002EC0332319F40E945D02A3
S1130D5029C010928C0126C08FB7F89499278FBFB1
S1130D602FB7F894332786B1582F5770482F407205
S1130D70987D942B952B8074977B982B90619F770B
S1130D80892F992786B9887D842B852B8773806169
S1130D90992786B9887D842B852B877B8069992741
S1130DA086B92FBFFF91EF91BF91AF919F918F9122
S1130DB07F916F915F914F913F912F910F900FBE53
S1130DC00F901F9018951F920F920FB60F92112437
S1130DD02F933F934F935F936F937F938F939F933F
S1130DE0AF93BF93EF93FF9383B783BF00B600FC29
S1130DF0FDCF81B799270196AA27BB2720912E0101
S1130E0030912F014091300150913101280F391F49
S1130E104A1F5B1F20932E0130932F014093300112
S1130E205093310178940E949103FF91EF91BF9107
S1130E30AF919F918F917F916F915F914F913F916E
S1130E402F910F900FBE0F901F901895EF92FF9265
S1130E500F931F93CF93DF93982F8FB7F894E82EB7
S1130E6080911E01833009F045C080910D018917DE
S1130E7009F040C080919A01882309F045C03EC022
S1130E80EF2DE695E695E695FF274F2D5527E65677
S1130E90FE4F9A012770307081E090E002C0880F05
S1130EA0991F2A95E2F78095208128232083C093F7
S1130EB01D0111C02196C230D10511F4C0E0D0E06B
S1130EC0FC2E8C2F0E94D3028823D1F6C017D107A1
S1130ED089F74FEF50E040930A028FEF80930D01A2
S1130EE081E080931E018FE00E949E00EFBE80E0AF
S1130EF090E010C0EFBE81E090E00CC082E08093EF
S1130F000D0110921E01F2CF80911D01082F1127AF
S1130F10E801D0CFDF91CF911F910F91FF90EF9017
S1130F200895AF92BF92CF92DF92EF92FF920F9308
S1130F301F93CF93DF935B016C01C0E0D0E0EBE93A
S1130F40F1E0608561FFD5C0208131814281538108
S1130F50E480F58006811781D601C501821B930BBD
S1130F60A40BB50B8E159F05A007B10708F4C1C0EB
S1130F7060FF03C06D7F608708C02E0D3F1D401FBA
S1130F80511F2083318342835383C23039F0C330ED
S1130F9079F1C13009F0B3C0AA98B1C08FB7F89401
S1130FA0082F112780912001882389F491E09093E0
S1130FB02001109271010FBF80912301882321F435
S1130FC082E10E949E009BC09093240198C080916E
S1130FD07101882309F47FC080E00E94DA0088232D
S1130FE009F079C08091450181608093450173C007
S1130FF080E00E94C500882309F43AC09FB7F894A2
S113100020912001222319F421E030E00FC08091C7
S11310100E01813019F020E030E008C040E050E0DB
S11310202150223010F441E050E09A01892F992791
S11310308FBF2223E9F08FB7F894082F1127902F40
S113104080910E01813099F480912001813021F446
S113105080E10E949E0009C0823049F480917101B0
S113106080930E0183E0809320010FBF01C09FBFD6
S113107081E00E94C500882309F441C09FB7F89419
S113108020912101222319F421E030E00FC0809146
S11310902201882319F020E030E008C040E050E04D
S11310A02150223010F441E050E09A01892F992711
S11310B08FBF222321F18FB7F894082F1127902F87
S11310C080912201882399F480912101813029F4AF
S11310D081E10E949E000FBF12C0823041F48091D2
S11310E063018093220183E080932101F4CF9FBFA9
S11310F006C021963996C430D10509F022CF8BE081
S11311000E949E00DF91CF911F910F91FF90EF906D
S1131110DF90CF90BF90AF9008950F931F93182F37
S11311200FB7F89461E080E00E943201882371F5E2
S113113010930201809105018823A9F5809115017E
S1131140823089F586E00CC00E9469018091150106
S1131150882349F481E08093150110926A0188E0A4
S11311600E949E002AC080917E018F3F31F5E0915C
S11311700401EE2311F11CC01092030104C0FF27E7
S1131180E258FE4F10821092040117C081E090E0F3
S113119002C0880F991F1A95E2F720911401282B99
S11311A0209314010AC0809115018823E1F6CCCF65
S11311B0809103018F3F19F7DFCF802F99278FBFCD
S11311C080E090E01F910F9108951F9383E00E94A7
S11311D07E019927182F882319F083E00E948D0837
S11311E0812F99271F910895CF92DF92EF92FF925A
S11311F00F931F93CF93DF938C01F62E6A01E22E97
S11312008FB7F894C82FDD2760E080E00E944C017E
S1131210882321F0CFBF80E090E01EC0CFBF0F0D28
S1131220111D802F80680E94BB01F82E169507952A
S1131230802F807C0E94BB010E2D0AC0EE2DFF275B
S1131240E01BF109EC0DFD1D80810E94BB010150E2
S11312500023A1F78F2D9927DF91CF911F910F9133
S1131260FF90EF90DF90CF900895CF93DF93CDB7A9
S1131270DEB72C970FB6F894DEBF0FBECDBF8FB785
S1131280F894282FAE014F5F5F4FDA01E2E0F2E0FD
S113129088E001900D928150E1F780916F01909167
S11312A070018987892F99278A878091830190917A
S11312B084018B87892F99278C872FBF2CE060E0CE
S11312C080E691E00E94F4082C960FB6F894DEBFF5
S11312D00FBECDBFDF91CF9108951F93CF93DF93BE
S11312E0182F8FB7F894C82FDD2760E080E00E94A4
S11312F04C01882321F0CFBF80E090E005C0CFBF30
S1131300812F0E94BB019927DF91CF911F910895EE
S1131310EF92FF920F931F93CF93DF93182F7B01CC
S1131320042F8FB7F894C82FDD2760E080E00E9477
S11313304C01882321F0CFBF80E090E014C0CFBFE0
S11313401064812F992790938801809387010E94CC
S1131350BB01182F402F5527B70180E090E00E9471
S11313603502812F9927DF91CF911F910F91FF9023
S1131370EF900895C0986091290170912A0141E08D
S11313808FE30E948809089582E090E090936201BF
S11313908093610181E080936E0120E030E08091D0
S11313A00201843011F421E030E0232B29F484E09D
S11313B00E947E01882319F40E94BA09089584E0EA
S11313C00E948D0808951F920F920FB60F92112458
S11313D02F933F934F935F936F937F938F939F9339
S11313E0AF93BF93EF93FF9380916101909162015A
S11313F0019749F482E090E0909362018093610147
S11314000E94C40905C0809169018F5F80936901BE
S1131410FF91EF91BF91AF919F918F917F916F91C8
S11314205F914F913F912F910F900FBE0F901F909E
S113143018951F9380911401882309F04BC01091D3
S113144002011F3F09F046C060E00E944C0188235E
S113145009F440C081E080930C0280914601882306
S1131460E1F110920C0285E090E045C0923069F5FC
S1131470C09A8091030120E030E08F3F11F421E015
S113148030E0232BE9F4109305018F3F19F42FEF7B
S113149030E00DC0282F3327F901E258FE4F808138
S11314A0809303018F3F11F4109304011083209360
S11314B06A0181E08093150188E00E949E0005C0C6
S11314C0109305011092150111C080911501882314
S11314D069F00FC081E090E00EC080910501909109
S11314E01501882319F2923021F0EFCF80E00E9499
S11314F05D0180E090E01F9108951F93CF93DF93E7
S11315009FB7F894C92FDD271C2F909102019817DB
S113151021F0CFBF81E090E03AC08FEF80930201C9
S1131520309114013323F1F48FB7F8949927109272
S1131530FC018FBF0E94190ACFBF11C02093020182
S113154081E090E002C0880F991F4A95E2F78095E8
S113155038233093140186E00E949E001FBF80E070
S113156090E015C080E065E0E32FFF270E94F11BA7
S1131570292F492F5527CF01042E02C09595879511
S11315800A94E2F780FDDACF822F8F5FEFCFDF91ED
S1131590CF911F9108951F93CF93DF938FB7F89442
S11315A0C82FDD271C2F8091610190916201892B46
S11315B029F484E00E947D0ACFBF1EC010926E0100
S11315C080916901882311F0B79904C00E9908C06D
S11315D0882319F08150809369010E94C4090BC0CB
S11315E081E090E09093620180936101109269011F
S11315F084E00E947D0A1FBFDF91CF911F9108955F
S11316000E942E04C09AC09888E00E946D0988E068
S11316100E946D09C09A84E00E947D0A0E94CB0A50
S11316200895FF920F931F93CF93DF93F82E8B01AE
S11316308FB7F894C82FDD2760E080E00E944C014A
S1131640882321F0CFBF80E090E00CC0CFBF8F2D66
S11316500E94BB01812F99270E94BB01802F0E9409
S1131660BB019927DF91CF911F910F91FF900895AE
S11316701F931FB7F89480916801882319F460E0E0
S113168070E009C060E080917102882309F461E090
S113169081E06827772780917201882319F480E01C
S11316A090E00AC090E080910102882309F491E05F
S11316B081E09827892F9927762F6627770F770F50
S11316C0770FF4E0880F991FFA95E1F7826E926222
S11316D0682B792B81E10E94110B812F99278FBFF1
S11316E01F9108958FB7F894992760910B028FBFCB
S11316F085E0689FB0011124625D7E4F706488E1CB
S11317000E94110B0895EF92FF921F93CF93DF93E2
S1131710E0907301F0907401F70182A59927182FC6
S1131720882309F41FE1C09880916601811749F06C
S1131730612F77276F717070606E706885E10E9409
S1131740110B10936601F70110818FB7F894C82F1D
S1131750DD2760E080E00E944C01882311F0CFBFB8
S113176012C0CFBF8EE390E09093880180938701ED
S11317708EE30E94BB011150412F552760E070E0B9
S1131780C7010E943502DF91CF911F91FF90EF9026
S113179008950F931F93CF93DF93EC010FB7F89441
S11317A011270E94EE00FC018FE380830FBF10928B
S11317B06F0210926E0261E082E00E94320188237F
S11317C019F085E090E072C080910D028F5F8093E4
S11317D00D0281508B838FB7F894082F112762E094
S11317E081E00E944C01882329F40FBF0E94560215
S11317F081E05BC08FB7F894992724E02093FD0122
S11318008FBFD0939001C0938F010FBFFE0131961B
S1131810818129819927982F88273327822B932B1D
S113182080729C7C8983892F992781832981982FB1
S1131830882733272164822B932B8983892F992727
S113184081831CA618A619A619AA18AA1FA680E89F
S11318508EA761E06093000240918F015091900146
S11318608FB7F894282F3327809116019091170190
S11318708830910511F0019711F02FBF15C082E057
S113188090E090931701809316016093780250932F
S113189074014093730110922D012FBF0E94E5083B
S11318A0882311F40E94830B80E09927DF91CF9164
S11318B01F910F910895CF93DF93DA01422F2D31B9
S11318C018F082E090E05EC0ED018B876E83872F75
S11318D099278F832FB7F894332780916F019091C4
S11318E070012FBFFD018483892F992785832FB72A
S11318F0F894332780910601909107012FBF8887C0
S1131900892F992789873196818129819927982F51
S11319108827332720643868822B932B8983892F67
S113192099278183435F4C934D508091090188230B
S113193059F010920901642FCD010E94C90B992717
S1131940282F8823A9F417C0842F992790938E01F8
S113195080938D01B0931B01A0931A018CE00E9427
S11319609E0080910901882349F489E090E00AC02F
S11319708FEF80930901822F992704C01092790177
S113198080E090E0DF91CF9108950F931F93CF9360
S1131990DF93182FEB01042FE82FFF27EE0FFF1F13
S11319A0EC56FE4F1182108210920C01E0919401CA
S11319B0F0919501309721F080916D0280FF0EC067
S11319C081E080930C0103C08EE00E949E001123ED
S11319D0B9F4602FCE010E94890312C020812D50DA
S11319E0332767817727762F662786819927682B87
S11319F0792BAF0183850E945B0C882341F3E4CFEC
S1131A00DF91CF911F910F9108959B0180910C015B
S1131A10882349F4609194017091950162177307CA
S1131A2011F40E94C50C08951F93182F81E090E0D3
S1131A309093170180931601109246010E94190A8F
S1131A408FB7F8949927109310018FBF82E00E94FA
S1131A509E001F91089578941F920F920FB60F92D3
S1131A6011242F923F924F925F926F927F928F92A6
S1131A709F92AF92BF92CF92DF92EF92FF920F9319
S1131A801F932F933F934F935F936F937F938F9302
S1131A909F93AF93BF93CF93DF93EF93FF93C6B519
S1131AA0D7B58FB7F894282E0E94C9049B012C1B2C
S1131AB03D0B442755272B013C01421A530A640A63
S1131AC0750A80911601909117018530910521F0D6
S1131AD0069709F0E0C0BFC086E090E0909317013C
S1131AE08093160131E0332E30926C01109218016C
S1131AF080E00E94A105E0917301F091740141AA74
S1131B00BB27A72D962D852D80ABC301AA27BB2704
S1131B1087A7872D9927AA27BB2786A7E09173015A
S1131B20F091740185A5882309F484C0608165500F
S1131B3077274F01860E971EF4012081E180828170
S1131B40A3809927AA27BB27BA2FA92F982F8827C4
S1131B50332744275527522F442733272227FF248E
S1131B60002711278701FF24EE242E293F29402B2B
S1131B70512BBB24CC24DD242A293B294C295D2963
S1131B80822B932BA42BB52B84199509A609B7098D
S1131B908383292F3A2F4B2F552722839D014427D6
S1131BA0552721838B2F9927AA27BB278083C09889
S1131BB024E0A40180E090E00E94F408C09AF401BB
S1131BC02081E1808281A3809927AA27BB27BA2F8D
S1131BD0A92F982F8827332744275527522F442786
S1131BE033272227FF24002711278701FF24EE240F
S1131BF02E293F29402B512BBB24CC24DD242A2918
S1131C003B294C295D29822B932BA42BB52B840DC6
S1131C10951DA61DB71D8383292F3A2F4B2F5527BA
S1131C2022839D014427552721838B2F9927AA2797
S1131C30BB278083E0917301F0917401818185FF5A
S1131C4002C03092460183E00E947D0A87B78F7EEE
S1131C5087BF84997AC010926C0181E00E94A1052B
S1131C60E0917301F0917401818185FF0FC087E0D9
S1131C7090E090931701809316010E94C90420E01C
S1131C8031E040E050E00E94860503C080E00E94FD
S1131C90140D849B5AC080911801882391F580917A
S1131CA06C01882371F511E010936C010E94A10569
S1131CB080B320916702283098F4E0916C02E20F1F
S1131CC0FF27E770F070EE0FFF1FEE0FFF1FED5EB2
S1131CD0FD4F40825182628273822F5F209367029C
S1131CE010931801D0938A01C093890184992DC05F
S1131CF0992764E0969587956A95E1F7182F1170F6
S1131D0001C010E080916C018130F9F410926C01F3
S1131D100E94A105109218011123B9F48091890140
S1131D2090918A01C81BD90B2A9778F48091670295
S1131D30882319F0815080936702809173019091F8
S1131D407401009711F00E943A042FBEFF91EF91A5
S1131D50DF91CF91BF91AF919F918F917F916F91BF
S1131D605F914F913F912F911F910F91FF90EF90B1
S1131D70DF90CF90BF90AF909F908F907F906F90A7
S1131D805F904F903F902F900F900FBE0F901F9039
S1131D901895CF92DF92EF92FF920F931F93CFB6D5
S1131DA0F894DD240E944904DC01CB0166E470E070
S1131DB00E94FD1B4BE0E42EF12CE80EF91EF0927C
S1131DC07502E09274020E94C90400271127A80139
S1131DD097010E948605CFBE1F910F91FF90EF904F
S1131DE0DF90CF9008951F93CF93DF938FB7F8942C
S1131DF0C82FDD271C2F8091160190911701089799
S1131E00C9F489E00E946D0983E00E947D0AC09AAA
S1131E1081E090E090931701809316018FB7F894B6
S1131E20992723E0209310018FBF82E00E949E0037
S1131E30CFBF30C0C09880917802882311F085E02C
S1131E4001C084E00E946D0983FD09C080E00E9406
S1131E506D0983FF04C085E090E020E003C083E0C7
S1131E6090E021E09093170180931601C09A1FBF60
S1131E70222341F010922D0183E00E947D0A0E94EA
S1131E80C90E08C00E94C90420E431E040E050E0DB
S1131E900E948605DF91CF911F91089578941F9237
S1131EA00F920FB60F9211241F932F933F934F93CA
S1131EB05F936F937F938F939F93AF93BF93EF93AE
S1131EC0FF9387B78F7E87BF78941FB7F89480916C
S1131ED07A0190917B01A0917C01B0917D010097E2
S1131EE0A105B10509F051C0809116019091170127
S1131EF08530910561F18630910530F48330910588
S1131F0049F0049781F51AC087309105F1F00897DC
S1131F1051F514C0869B0FC084E090E090931701A4
S1131F20809316010E94C90427E030E040E050E0AD
S1131F300E94860518C00E94C90E15C00E94E508BB
S1131F40882389F40E94F30E0EC080E00AC089E061
S1131F500E946D0981E00E94A10583E00E947D0A30
S1131F6087E00E94140D8091110190911201019754
S1131F7071F482E090E09093120180931101DE9855
S1131F80DE9A80E00E948D0802C00E94E604812F40
S1131F9099278FBFFF91EF91BF91AF919F918F913F
S1131FA07F916F915F914F913F912F911F910F906E
S1131FB00FBE0F901F901895EF92FF920F931F93EF
S1131FC0CF93DF938B01809187019091880186FFE5
S1131FD040C18F7B8F3309F08EC1C0912901D0910C
S1131FE02A015881509364018091610190916201AA
S1131FF08530910509F443C08630910509F48AC0FF
S1132000029709F01FC185E090E0909362018093EC
S1132010610140914401852F99270196242F33278C
S1132020281739074CF1B79906C00E9904C0451B0F
S1132030415040934401409164014A32E8F44423FE
S1132040A1F0BE016F5F7F4F483018F047E050E0C9
S113205007C086E090E09093620180936101552768
S113206080E090E00E94350246C110926E01C09A51
S113207084E00E947D0AE3C00E94000B3CC186E01C
S113208090E09093620180936101809172018823B2
S113209009F439C0809101028823A9F5898185FF5B
S11320A032C08F814E812FB7F8943327609183011A
S11320B0709184012FBF9927982F88275527842B47
S11320C0952B8617970759F08F812E819927982F82
S11320D088273327822B932B8F5F9F4FA1F489810D
S11320E08770813081F4C09AC0988AE00E946D099B
S11320F0C09AC0984091640147502896BE018FE36E
S11321000E948809F8C040916401475055272896D9
S1132110BE01A6CFC09A80916901882339F484E076
S11321200E947D0A80916901882311F0B7990AC041
S11321300E9B08C090916702992321F0809164015D
S11321408B3038F48091290190912A010E943A043D
S11321503DC0913001F5E0916C02FF27EE0FFF1FA7
S1132160EE0FFF1FED5EFD4F2081318142815381CF
S1132170E0912901F0912A0121ABBB27A52F942FCF
S1132180832F80ABCA01AA27BB2787A7252F332714
S11321904427552726A780916C029927019668E069
S11321A070E00E94111C80936C0280916702815040
S11321B080936702882351F08091290190912A012C
S11321C00E943A0410926C0210926702809164019A
S11321D0FE01E80FF11D808187FF31C0012B79F1E9
S11321E069816770E0912901F0912A01623019F543
S11321F0A0917301B0917401109709F180911601B7
S1132200909117010797D9F4ED019B818381981769
S1132210B1F487B78F7E87BF908181E08CA7E90FE7
S1132220F11D8291319688A780818F7789A780E0FC
S11322300E94140D04C0613011F489E02AC00E9488
S1132240CB0A59C010926E01C09A84E00E947D0AA4
S113225052C08E3309F04FC0C09A809116019091FC
S113226017010897C9F4C09889E00E946D09C09AC3
S113227083E00E947D0A81E090E0909317018093AF
S113228016018FB7F894992723E0209310018FBF8C
S113229082E00E949E002FC080917802882349F436
S11322A084E090E090931701809316010E94F30E4E
S11322B022C083E00E947D0A83E090E0909317019E
S11322C0809316010E944904DC01CB0166E371E0AE
S11322D00E94FD1B5BE0E52EF12CE80EF91EF09246
S11322E03F01E0923E010E94C90400271127A80182
S11322F097010E948605DF91CF911F910F91FF9066
S1132300EF9008951F920F920FB60F9211242F93FE
S11323103F934F935F936F937F938F939F93AF9369
S1132320BF93EF93FF932FB1E091BF01F091C001F0
S1132330309739F08091920190919301E80FF91F41
S1132340208380919201909193010196909393013F
S11323508093920180E00E94630140912B0150918F
S11323602C0180919201909193018417950718F4A0
S11323700E94C7011CC06091BF017091C00180918F
S11323807202909173021092C0011092BF011092D8
S113239073021092720210922C0110922B0110926F
S11323A09301109292012FB120E00E94DC0FFF9163
S11323B0EF91BF91AF919F918F917F916F915F91B9
S11323C04F913F912F910F900FBE0F901F90189532
S11323D09F92AF92BF92CF92DF92EF92FF920F93B0
S11323E01F93CF93DF93CDB7DEB7A8970FB6F894BA
S11323F0DEBF0FBECDBFE82FFF27EA31F10508F09D
S11324004BC6EA5BFF4FEE0FFF1F0590F491E02DE2
S1132410099480916D02882309F43EC690E011E08E
S113242026C40FB7F894112781E00E94A10541E06A
S1132430E42EF12CF0921701E0921601109218018B
S113244010924601109266010FBF0FB7F89411273E
S11324500E942E04F0926201E092610110926E01DA
S113246089B78F7B89BF80E488BF8AB780628ABFBF
S11324708AB78F7E8ABF89B7806489BF0FBF8FB741
S1132480F894082F1127809111019091120104975B
S113249019F483E00E946D090FBF0FB7F894112758
S11324A0C09A80E00E947D0A0FBF8FB7F8949927E5
S11324B022E02093FD0105C08FB7F894992710926C
S11324C0FD018FBFE9C58FB7F8949927F0901001EB
S11324D08FBF63E081E00E944C01882359F10FB75C
S11324E0F8941127109217011092160187B78F7E66
S11324F087BF87B78F7D87BF83E00E947D0AC09A1C
S11325000FBF0FB7F8941127109262011092610166
S11325100E942E04C09A89B78F7B89BF0FBF109287
S1132520120110921101DE98DD98DE9A81E00E947A
S11325309E0007C08FB7F894992722E02093FD01ED
S11325408FBF00918F01109190010E9456028091DB
S11325506E0290916F02892B09F09EC58FEF8093D4
S113256009014F2DB80179C38FB7F894282F332769
S1132570122F80917602882301F581E08093760200
S11325808091110190911201049721F481E00E943D
S11325908D0803C084E00E949E001FBF7DC58FB7D5
S11325A0F8949927109276028CCF8FB7F894282F3D
S11325B0332780911301882311F02FBF6DC52FBFDE
S11325C080B3992736E0969587953A95E1F7182FC9
S11325D0117090918501809186018917D9F019179E
S11325E0C9F484E090E090931201809311018FB7B5
S11325F0F894992721E0209313018FBF60E070E0E5
S11326008DE10E94110B0E943509C09AC09880E0A8
S11326100E949E001093860185E0E5C38FB7F8946D
S11326209927109102018FBF123009F465C013304D
S113263030F4112359F0113009F02EC548C013307D
S113264009F474C0143009F027C5A0C0C0988FB72E
S1132650F894082F1127809111019091120102978B
S1132660A1F583E090E0909312018093110168E159
S113267070E08DE10E94110B81E08093850110923E
S1132680130180B3992726E0969587952A95E1F75B
S1132690817090708093860185E00E949E0081E0A5
S11326A00E946D096FE772E08CE10E94110B0E9499
S11326B0720B0E94380B66E57AE287E10E94110BE7
S11326C06FEF70E885E10E94110B0FBFE5C4C0985D
S11326D086E00E946D090E94720B0E94380B0E94D2
S11326E03509C09AC09883E00E946D09C09A81E0C0
S11326F00E947D0A84E077C3C0988FB7F894082FAE
S1132700112760E080E00E944C01882311F00FBF84
S11327100AC00FBF83E50E94BB0180E00E94BB0199
S113272080E00E94BB01C09A82E02DC08FB7F8946C
S11327309927209116018FBF243039F0283041F0B9
S1132740223001F50E94830BA7C40E94F30EA4C497
S1132750C09889E00E946D09C09A83E00E947D0AB6
S11327608FB7F894992721E030E030931701209334
S113277016018FBF8FB7F8949927109310018FBF5C
S113278082E031C383E00E947D0A86C40E94BA09B4
S113279083C40FB7F894112740912B0150912C0159
S11327A06091BF017091C001809172029091730297
S11327B01092C0011092BF01109273021092720223
S11327C010922C0110922B011092930110929201FD
S11327D020E00E94DC0F79CF2FB7F8943327809143
S11327E06A018093050182E0809315012FBF8091D7
S11327F00501882309F050C4B89AC09886E0F3C252
S1132800A0912901B0912A011C919D01210F311D34
S1132810F9018081881F8827881FFD0183A7F9019A
S113282080818F77FD0181A721503040F90180819B
S1132830FD0180A7A0912901B0912A01FD013281F7
S11328408FB7F8949927209168018FBF222309F448
S113285090C0832F99279695879596958795837031
S113286090708230910541F5878146812FB7F894A5
S1132870332760918301709184012FBF9927982F8A
S113288088275527842B952B8617970719F481E001
S113289090E06CC0FD018781268140E050E09927DB
S11328A0982F88273327822B932B8F5F9F4F11F408
S11328B041E050E0CA015AC0039709F01AC19E01D1
S11328C02F5F3F4F42E052E088E0FA010190AF01F0
S11328D0F90101929F018150C1F79E012F5D3F4F85
S11328E0AE014F5F5F4F88E0FA010190AF01F9013B
S11328F001929F018150C1F79E01275F3F4FAE01B6
S11329004F5D5F4F88E0FA010190AF01F901019238
S11329109F018150C1F79E012F5E3F4FAE01475F7B
S11329205F4F88E0FA010190AF01F90101929F0124
S11329308150C1F79E01275E3F4FAE014F5E5F4F4E
S113294088E0FA010190AF01F90101929F018150E1
S1132950C1F748E050E0BE01675E7F4FCD010696A7
S11329600E947A1C892B09F0C4C003C0882309F48F
S1132970C0C01D3008F4BDC0E0902901F0902A01C8
S1132980F7012281822F992736E0969587953A950B
S1132990E1F7039719F468E070E002C062E070E0C8
S11329A0822F992796958795969587958370907031
S11329B0039719F488E090E002C082E090E026E0FA
S11329C030E0E20EF31E40E050E020E030E0F7019A
S11329D0E80FF91F8AEF9FEFE80EF91E05C08191F9
S11329E0480F511D2F5F3F4F26173707C4F3F701D8
S11329F063818FEF809370028FB7F894782F20E073
S1132A0030E0E2E3F1E0808191818417950729F4B5
S1132A108281861731F1209370022F5F3F4F3396E6
S1132A202430310581F77FBF909170023FB7F8944D
S1132A309F3F21F0809119018917A9F42091190170
S1132A40822F9927FC01EE0FFF1FE80FF91FEE5CA0
S1132A50FE4F5183408362832F5F237020931901BB
S1132A600EC07FBF42C0892F9927FC01EE0FFF1FC4
S1132A70E80FF91FEE5CFE4F518340836283832F7E
S1132A8099278FBF0FB7F8941127C7010E94EE0052
S1132A90FC0190810FBFF70183A5882331F19F3397
S1132AA021F5878146812FB7F89433276091060179
S1132AB0709107012FBF9927982F88275527842BBA
S1132AC0952B8617970759F0878126819927982F88
S1132AD088273327822B932B8F5F9F4F31F4F70185
S1132AE08385863011F4EE24FF24F0922A01E092CB
S1132AF029018FB7F894992710926E018FBF0E9415
S1132B00CB0ACAC280916501882361F520910F0226
S1132B10309110024091110250911202EFB7F894D3
S1132B20FF276091F8017091F9018091FA01909169
S1132B30FB01E0904001F0904101009142011091AD
S1132B4043016E0D7F1D801F911FEFBF20930F0265
S1132B5030931002409311025093120210926501B7
S1132B600E9414040E94620343C00E9462035B013A
S1132B706C018FB7F8949927109291018FBF6FEF72
S1132B80E62E6FEFF62E6FEF062F6FE7162F60E03D
S1132B90EBE9F1E0808581FF1CC080819181A281F5
S1132BA0B381A6019501281B390B4A0B5B0BDA0193
S1132BB0C9012481358146815781281B390B4A0B71
S1132BC05B0B2E153F05400751071CF479018A0160
S1132BD061E0399631E0EF3BF307E1F6662309F44F
S1132BE05BC21E141F04100611062CF0C601B501A9
S1132BF00E94910751C2E0920F02F09210020093DA
S1132C0011021093120281E080936501A8019701DB
S1132C10C601B5010E9414043FC2909179018091CC
S1132C200901981709F438C2909309019923D1F442
S1132C3000911A0110911B0160918D01C8010E943D
S1132C40C90B482F5527442309F426C28FEF8093DC
S1132C50090160911A0170911B01F80183850E949A
S1132C60050D1AC28FEF8093090116C2110F20912E
S1132C706D02812F8223C1F0E92FFF27EE0FFF1F82
S1132C80EC56FE4F4081518111821082812F809534
S1132C90282320936D02992339F463E0CA010E942A
S1132CA08903110F91E0E3CF9F5F9830F8F2F4C1EC
S1132CB080910C01E82FFF27EE0FFF1FEC56FE4F0B
S1132CC06081718141E00E94C50CE6C18FB7F89420
S1132CD0992720910A0220930D0123E020931E01DD
S1132CE08FBF80910D01882321F0813009F0D4C178
S1132CF003C0159A1D9A02C0169A1E9A0E94620376
S1132D00AB01BC0131E0E32E0AE010E020E030E04A
S1132D1083E00E944303C0C12FB7F8943327809106
S1132D20710180930E0143E0409320012FBF8091F5
S1132D300E0180930E028FB7F894082F112780910B
S1132D402801882339F581E08093280110929901A4
S1132D500FBF8FB7F8949927379A8FBF8FB7F8941E
S1132D60082F1127902F80910F01813089F48091D1
S1132D702801813021F488E10E949E00A6CC823093
S1132D8039F48091990180930F01409328019DCCDF
S1132D909FBF82C180919901882309F496CC80E079
S1132DA00E948A00882309F090CC80919801816068
S1132DB0809398018ACC8FB7F89499272091630166
S1132DC02093220123E0209321017BCB80E005C0E6
S1132DD01D98159886E107C081E00E94E7025CC156
S1132DE01E98169887E10E949E0056C180E00E94BA
S1132DF0260780912401813019F480E00E94E702C3
S1132E008FB7F8949927109224011092230159CB7B
S1132E1081E00E94260780912601813011F40E94EE
S1132E20E7028FB7F8949927109226011092250192
S1132E3048CB2FB7F89433278091990180930F01E1
S1132E4083E0809328012FBF80910F01882309F02C
S1132E5023C181E080938C0110926B020E945D0279
S1132E601BC110928C01A090F501B090F6018091E5
S1132E706B02882309F010C18FB7F894C82E809193
S1132E802801833009F041C080910F018823E9F5BE
S1132E9080919801882309F0EAC0E2C0ED2DE695FF
S1132EA0E695E695FF274D2D5527E856FE4F9A01E6
S1132EB02770307081E090E002C0880F991F2A9536
S1132EC0E2F780952081282320830093270112C0F4
S1132ED00F5F1F4F0130110511F400E010E0D02EF8
S1132EE0802F0E948A008823C9F60E151F0581F7DA
S1132EF04FEF50E0409399018FEF80930F0181E0F1
S1132F008093280188E10E949E00CFBE80E00E9449
S1132F10C500882309F4A0C090900E028FB7F894DE
S1132F20C82E80912001833009F041C080910E01A8
S1132F308915E9F580914501882309F0A7C09DC052
S1132F40ED2DE695E695E695FF274D2D5527EB5B90
S1132F50FE4F9A012770307081E090E002C0880F24
S1132F60991F2A95E2F780952081282320830093D6
S1132F701F0112C00F5F1F4F0130110511F400E053
S1132F8010E0D02E802F0E94DA008823C9F60E1597
S1132F901F0581F74FEF50E0409371018FEF80934D
S1132FA00E0181E08093200180E10E949E00CFBE4B
S1132FB0992009F051C0DA98F8E5AF16F2E0BF069F
S1132FC008F04AC0D89880911C01882309F044C0B5
S1132FD0D99880910001909101018093CE01892FAD
S1132FE099278093CD01A092D0018B2D99278093AE
S1132FF0CF0141EC51E082E08093C7011092C801F7
S113300086E08093CC018091940190919501892B65
S113301019F5509395014093940181E18093C10186
S113302080910C018823A9F010920C0124E062E045
S113303070E086E00E945B0C9927282F882349F0D2
S113304081E080930C011092950110929401222347
S113305019F481E080931C0181E00E94C5001CC02A
S113306081E080930F011092280137984ECF809110
S11330702701E82EFF2487012BCF81E080930E01E6
S1133080109220018093230183E18FCF80911F014F
S1133090E82EFF2487016ECFA8960FB6F894DEBF02
S11330A00FBECDBFDF91CF911F910F91FF90EF9095
S11330B0DF90CF90BF90AF909F9008958091680269
S11330C08F3FB1F0282F3327F901E95BFE4F808150
S11330D0809368028F3F11F4809377028FEF80838F
S11330E02F3F31F0822F0E94E81181E090E0089593
S11330F080E090E00895EF920F931F93CF93DF93B6
S1133100CDB7DEB7E0970FB6F894DEBF0FBECDBFE4
S11331101FB7F8944AE150E06FEF70E087E491E064
S11331200E94871C8FEF809368028093770281E06E
S11331308EBD88E080BF83E083BF8CB59DB54AE730
S11331402CB53DB52817390708F44150442311F034
S1133150C901F6CF92B782B78917E9F32CB53DB50B
S113316092B782B78917E9F38CB59DB5821B930B8F
S1133170409655E0969587955A95E1F790936A02A3
S11331808093690213BE83B78EBD8EB580BF12BE15
S11331901DBC1CBC8FEF86BF86B780937C0080B7B4
S11331A0992787709070892BD1F7D29AD19AD09AA7
S11331B0DA9AD99AD89A15BA8FEF84BBD498DC9846
S11331C016B81DBC1CBC87B7846087BF8EB5887FCA
S11331D084608EBD0E945E188823E1F710929801E6
S11331E01092450110929A018FEF80936B01E2E3F4
S11331F0F1E08FEF9FEF918380831282339621E079
S1133200EE33F207C1F70E94490460930D028091E6
S11332100001909101010196AA27BB2780937501B3
S113322090937601A0937701B093780180B788607A
S113323080BF8BE083BF86EE81BF87B7826087BF84
S11332400E94910383E392E090932A0180932901E1
S11332508E98B89A8C988FEF80937E011092FC011F
S11332601092FD011092FE011092FF01B89AD69AB5
S1133270D59A8FB7F89499272091060130910701C8
S11332808FBF30938401209383010E94B40529A742
S11332903AA74BA75CA76DA77EA78FA798ABDE01C3
S11332A09196FE01B99688E001900D928150E1F764
S11332B0DE015196FE01B19688E001900D92815095
S11332C0E1F7DE015996FE01719688E001900D92B6
S11332D08150E1F7A2E0B2E0FE01799688E0019026
S11332E00D928150E1F78091080199279093700124
S11332F080936F018FE18093F7018AE180930B0241
S11333000E94B40529A73AA74BA75CA76DA77EA77F
S11333108FA798ABDE019196FE01B99688E00190E3
S11333200D928150E1F7DE011196FE01B19688E01D
S113333001900D928150E1F7DE011996FE0131965C
S113334088E001900D928150E1F7A2E0B2E0FE0125
S1133350399688E001900D928150E1F7A2E0B2E045
S1133360FD0137969C9180818D939083319782E003
S1133370E530F807B9F781E0809368011092710293
S113338080937201109201020E945E188823E1F773
S1133390812F99278FBF78940E946203AB01BC01EF
S11333A0EE2404EF11E020E030E082E00E944303C9
S11333B061E081E00E9432018823E9F48FB7F89438
S11333C0282F33278091110190911201892B11F03C
S11333D02FBF1BC081E090E09093120180931101F4
S11333E02FBFDD9A0E94C90424E130E040E050E0A0
S11333F00E9486050AC062E081E00E944C01882395
S113340021F461E081E00E944C018FB7F894482FC9
S113341055274BC087B7992783709070892B19F46F
S1133420E5E0F0E013C080B7992787709070892B8E
S1133430D1F781B792B7891B8C3030F082B7853FC2
S113344018F4E3E0F0E002C0E2E0F0E087B7887B44
S1133450C1F480917D008B7FA1F46E9912C08AB172
S113346090919A00892B887161F48091740082FD97
S113347008C0379B03C081E090E005C085E090E080
S113348002C080E090E025B78E1708F4E82FFF27EC
S1133490E054FF4FE491237E2062E22BE5BF789451
S11334A08895F89485B78F7D85BF809168028F3F9A
S11334B009F4B0CF282F3327F901E95BFE4F80814F
S11334C0809368028F3F11F4809377028FEF80839B
S11334D02F3F09F49FCF4FBF822F0E94E81195CF51
S11334E0ACE2B0E0E6E7FAE10C94431C222E332E62
S11334F0442E552E662E772E882E992EFE01319657
S1133500A8E01192AA95E9F729823A824B825C825B
S11335106D827E828F829886FE013996B8E0119280
S1133520BA95E9F7A986BA86CB86DC86ED86FE864F
S11335300F87188B89819A81AB81BC8189A79AA74F
S1133540ABA7BCA77C018D018FEF9FEFA0E0B0E09B
S1133550E822F9220A231B2389A59AA5ABA5BCA5B9
S11335601D014424552489859A85AB85BC858DA38A
S11335709EA3AFA3B8A75C016D018FEF9FEFA0E0FE
S1133580B0E0A822B922CA22DB228DA19EA1AFA15C
S1133590B8A53D0188249924C801B701A601950165
S11335A00E94241C69A37AA38BA39CA3C801B7011E
S11335B0A40193010E94241C7B018C01C201B1016E
S11335C0A60195010E94241C5B016C01C201B1019A
S11335D0A40193010E94241C3B014C01EA0CFB1C36
S11335E00C1D1D1D89A19AA1ABA1BCA19D0144275D
S11335F055272E0D3F1D401F511F2A153B054C0515
S11336005D0540F480E090E0A1E0B0E0680E791E32
S11336108A1E9B1ECA01AA27BB27860D971DA81DBB
S1133620B91D8D8F9E8FAF8FB8A3A9013327222791
S113363089A19AA1ABA1BCA1A070B070280F391FB9
S11336404A1F5B1F298F3A8F4B8F5C8FA98CBA8CD2
S1133650CB8CDC8CED8CFE8C0F8D18A1FE01719649
S113366098E011929A95E9F7ED8AFE8A0F8B188FEC
S11336702D813E814F8158856DA17EA18FA198A592
S11336800E94241C3B014C012D853E854F855889A1
S113369069A57AA58BA59CA50E94241C2D893E8929
S11336A04F89588D260F371F481F591F260D371D68
S11336B0481D591D2D8B3E8B4F8B588F6D887E88EE
S11336C08F88988C2A2D3B2D4C2D5D2D662D772DC2
S11336D0882D992DE2E1AC960C945F1CA0E1B0E03A
S11336E0E4E7FBE10C94431C222E332E442E552E8A
S11336F0662E772E882E992E002309F466C088E062
S1133700FE01319611928A95E9F729833A834B8316
S11337105C836D837E838F829887E0E2E01B1E16B4
S1133720CCF52D813E814F815885602F772767FD29
S11337307095DA01C901062E04C0B695A795979530
S113374087950A94D2F78D879E87AF87B88B04C07C
S1133750220F331F441F551FEA95D2F789819A819E
S1133760AB81BC8104C0B695A795979587956A955A
S1133770D2F7282B392B4A2B5B2B29873A874B8787
S11337805C8729843A844B845C846D847E848F8432
S113379098881BC01D861E861F86188A2E2F3327E5
S11337A027FD3095309521953F4F8D819E81AF81C6
S11337B0B88504C0B695A795979587952A95D2F7AD
S11337C089879A87AB87BC87DCCF222D332D442D84
S11337D0552D662D772D882D992DE2E160960C9458
S11337E05F1C991B79E004C0991F961708F0961B7B
S11337F0881F7A95C9F780950895AA1BBB1B51E1D0
S113380007C0AA1FBB1FA617B70710F0A61BB70B4C
S1133810881F991F5A95A9F780959095BC01CD01F1
S1133820089597FB092E07260AD077FD04D0E5DF1B
S113383006D000201AF4709561957F4F0895F6F72D
S1133840909581959F4F0895629FD001739FF001D9
S1133850829FE00DF11D649FE00DF11D929FF00D1C
S1133860839FF00D749FF00D659FF00D9927729F53
S1133870B00DE11DF91F639FB00DE11DF91FBD01DE
S1133880CF01112408952F923F924F925F926F922D
S11338907F928F929F92AF92BF92CF92DF92EF92DC
S11338A0FF920F931F93CF93DF93CDB7DEB7CA1B5D
S11338B0DB0B0FB6F894DEBF0FBECDBF09942A8888
S11338C0398848885F846E847D848C849B84AA8430
S11338D0B984C884DF80EE80FD800C811B81AA81BD
S11338E0B981CE0FD11D0FB6F894DEBF0FBECDBF88
S11338F0ED010895FB01DC0104C08D910190801954
S113390021F441505040C8F7881B990B0895DC01FD
S111391001C06D9341505040E0F70895FFCF81
S113391E0100FFFFFFFF010022FFFFFF0102010173
S9030000FC
